:100000000C942A000C942E180C9457180C948018F9
:100010000C9447000C9447000C94CB170C940B09DC
:100020000C9447000C9447000C947A170C942917F1
:100030000C9447000C9447000C9447000C94470024
:100040000C9447000C9447000C9447000C94470014
:100050000C94470011241FBECFE5D8E0DEBFCDBF12
:1000600016E0A0E6B0E0E6EDFBE402C005900D92DC
:10007000AC3AB107D9F71BE0ACEAB6E001C01D927B
:10008000A73CB107E1F70E9475230C94E9250C9475
:100090000000EF92FF920F931F937B018C0120E0F1
:1000A00030E040E05FE40E94490388238CF0C801FF
:1000B000B70120E030E040E05FE40E94C1010E940F
:1000C000A9039B01AC01205030404040504806C07D
:1000D000C801B7010E94A9039B01AC01B901CA0183
:1000E0001F910F91FF90EF900895A0E0B0E0EBE733
:1000F000F0E00C949325DC012B01FA019C919230E5
:1001000008F439C1EB018881823008F433C194309E
:1001100069F4843009F02FC111969C91119789815F
:10012000981709F428C1A4E9B6E025C1843009F480
:1001300021C18230A9F4923009F01DC19A01AD01AC
:1001400088E0EA010990AE01E90109929E0181501F
:10015000C1F7E201898111969C918923818308C1AD
:10016000923009F407C112962D903C901397EB0141
:100170008A819B811496AD90BD90CD90DC901797AD
:10018000EC80FD800E811F819101281B390BB90184
:1001900037FF04C066277727621B730B6032710537
:1001A0000CF061C0121613066CF537014801062EDB
:1001B00004C096948794779467940A94D2F721E0C8
:1001C00030E040E050E004C0220F331F441F551FB1
:1001D0006A95D2F721503040404050402E213F21B7
:1001E00040235123211531054105510521F021E01E
:1001F00030E040E050E079018A01E628F72808293C
:1002000019293CC0232BD1F1260E371E350146019A
:10021000062E04C096948794779467940A94D2F734
:1002200021E030E040E050E004C0220F331F441FC3
:10023000551F6A95D2F721503040404050402A2146
:100240003B214C215D21211531054105510521F04E
:1002500021E030E040E050E059016A01A628B728CB
:10026000C828D9280BC0821593052CF01C01AA249C
:10027000BB24650103C0EE24FF24870111969C91E5
:10028000D20111968C91981709F445C0992339F041
:10029000A80197012A193B094C095D0906C0A6016E
:1002A00095012E193F09400B510B57FD08C01182D3
:1002B0003382228224833583468357831DC081E0A5
:1002C00081833382228288279927DC01821B930B4A
:1002D000A40BB50B84839583A683B7830DC0220F2F
:1002E000331F441F551F24833583468357838281E0
:1002F000938101979383828324813581468157813D
:10030000DA01C9010197A109B1098F5F9F4FAF4F72
:10031000BF4328F30BC0918333822282EA0CFB1C7B
:100320000C1D1D1DE482F5820683178383E0808304
:10033000248135814681578157FF1AC0C901AA27F8
:1003400097FDA095BA2F81709070A070B0705695EF
:10035000479537952795822B932BA42BB52B848318
:100360009583A683B7838281938101969383828349
:10037000DF0101C0D201CD01CDB7DEB7E2E10C94BF
:10038000AF25A0E2B0E0E7ECF1E00C949F25698393
:100390007A838B839C832D833E834F835887E9E048
:1003A000EE2EF12CEC0EFD1ECE010196B7010E943F
:1003B000D2048E010F5E1F4FCE010596B8010E9438
:1003C000D2048A8991E089278A8BC701B801AE01DE
:1003D000475E5F4F0E9475000E94FD03A096E6E015
:1003E0000C94BB25A0E2B0E0E8EFF1E00C949F256F
:1003F00069837A838B839C832D833E834F835887C5
:10040000F9E0EF2EF12CEC0EFD1ECE010196B701A6
:100410000E94D2048E010F5E1F4FCE010596B801D7
:100420000E94D204C701B801AE01475E5F4F0E942F
:1004300075000E94FD03A096E6E00C94BB25A0E2A7
:10044000B0E0E5E2F2E00C94932569837A838B8334
:100450009C832D833E834F835887CE010196BE0136
:10046000675F7F4F0E94D204CE010596BE016F5E8A
:100470007F4F0E94D2049985923088F0898982301A
:10048000C8F0943019F4823051F404C0843029F457
:10049000923081F484E996E0C6C0923049F420E0BD
:1004A0009A858A89981321E02A87CE010996BBC0D4
:1004B000823049F420E09A858A89981321E02A8BBA
:1004C000CE014196B0C02D843E844F8458886D88FB
:1004D0007E888F88988CEE24FF248701AA24BB2471
:1004E000650140E050E060E070E0E0E0F0E0C10174
:1004F00081709070892BE9F0E60CF71C081D191D1E
:100500009A01AB012A0D3B1D4C1D5D1D80E090E062
:10051000A0E0B0E0E614F7040805190520F481E036
:1005200090E0A0E0B0E0BA01A901480F591F6A1F8E
:100530007B1FAA0CBB1CCC1CDD1C97FE08C081E0F5
:1005400090E0A0E0B0E0A82AB92ACA2ADB2A3196B6
:10055000E032F10549F0660C771C881C991C569412
:10056000479437942794C3CFFA85EA892B893C892D
:100570008B859C85280F391F2E5F3F4F17C0CA01FE
:1005800081709070892B61F016950795F794E79428
:1005900080E090E0A0E0B0E8E82AF92A0A2B1B2BC3
:1005A00076956795579547952F5F3F4F77FDE7CF36
:1005B0000CC0440F551F661F771F17FD4160EE0CDE
:1005C000FF1C001F111F21503040403090E05907A0
:1005D00090E0690790E4790760F32B8F3C8FDB0193
:1005E000CA018F779070A070B07080349105A1051A
:1005F000B10561F447FD0AC0E114F10401051105DC
:1006000029F0405C5F4F6F4F7F4F40781A8EFE1786
:1006100011F081E08A8F4D8F5E8F6F8F78A383E01A
:10062000898FCE0149960E94FD03A096E2E10C94C9
:10063000AF25A8E1B0E0EFE1F3E00C949F256983DA
:100640007A838B839C832D833E834F83588789E0F5
:10065000E82EF12CEC0EFD1ECE010196B7010E9492
:10066000D2048E010F5E1F4FCE010596B8010E9485
:10067000D2048985823040F08989823028F0C70110
:10068000B8010E944A0501C08FEF6896E6E00C941D
:10069000BB25A8E1B0E0EFE4F3E00C949F2569836B
:1006A0007A838B839C832D833E834F83588789E095
:1006B000E82EF12CEC0EFD1ECE010196B7010E9432
:1006C000D2048E010F5E1F4FCE010596B8010E9425
:1006D000D2048985823040F08989823028F0C701B0
:1006E000B8010E944A0501C08FEF6896E6E00C94BD
:1006F000BB25A8E1B0E0EFE7F3E00C949F25698308
:100700007A838B839C832D833E834F83588789E034
:10071000E82EF12CEC0EFD1ECE010196B7010E94D1
:10072000D2048E010F5E1F4FCE010596B8010E94C4
:10073000D2048985823040F08989823028F0C7014F
:10074000B8010E944A0501C081E06896E6E00C9479
:10075000BB25ACE0B0E0EFEAF3E00C94A32569839D
:100760007A838B839C83CE010196BE016B5F7F4FA2
:100770000E94D2048D81823061F1823050F1843048
:1007800021F48E81882351F12EC02F81388537FDC9
:1007900020C06E812F3131051CF06623F9F023C093
:1007A0008EE190E0821B930B29853A854B855C8511
:1007B00004C056954795379527958A95D2F76623B5
:1007C000B1F050954095309521953F4F4F4F5F4F79
:1007D0000EC020E030E040E050E009C02FEF3FEFD6
:1007E0004FEF5FE704C020E030E040E050E8B9019F
:1007F000CA012C96E2E00C94BF25DF92EF92FF92A3
:100800000F931F93FC01E480F58006811781D1804E
:100810008081823048F480E090E0A0E1B0E0E82AF6
:10082000F92A0A2B1B2BA5C0843009F49FC0823003
:1008300021F4EE24FF24870105C0E114F104010531
:10084000110519F4E0E0F0E096C0628173819FEF3A
:10085000623879070CF05BC022E83FEF261B370BAC
:100860002A3131052CF020E030E040E050E02AC091
:10087000B801A701022E04C0769567955795479554
:100880000A94D2F781E090E0A0E0B0E004C0880FC5
:10089000991FAA1FBB1F2A95D2F70197A109B10979
:1008A0008E219F21A023B1230097A105B10521F03E
:1008B00081E090E0A0E0B0E09A01AB01282B392B59
:1008C0004A2B5B2BDA01C9018F779070A070B07052
:1008D00080349105A105B10539F427FF09C0205CDA
:1008E0003F4F4F4F5F4F04C0215C3F4F4F4F5F4F13
:1008F000E0E0F0E02030A0E03A07A0E04A07A0E402
:100900005A0710F0E1E0F0E079018A0127C0603871
:10091000710564F5FB01E158FF4FD801C7018F77DE
:100920009070A070B07080349105A105B10539F4C4
:10093000E7FE0DC080E490E0A0E0B0E004C08FE3EB
:1009400090E0A0E0B0E0E80EF91E0A1F1B1F17FFA1
:1009500005C016950795F794E794319687E01695AC
:100960000795F794E7948A95D1F705C0EE24FF2404
:100970008701EFEFF0E06E2F679566276795902F60
:100980009F77D794DD24D7948E2F8695492F462BB9
:10099000582F5D29B701CA011F910F91FF90EF9069
:1009A000DF900895FC01DB01408151812281622F9B
:1009B0006F7770E0221F2227221F9381892F880FD3
:1009C000822B282F30E0991F9927991F11969C930D
:1009D000119721153105A9F54115510561057105DD
:1009E00011F482E037C082E89FEF13969C938E93B8
:1009F00012979A01AB0167E0220F331F441F551F66
:100A00006A95D1F783E08C930DC0220F331F441FEA
:100A1000551F12968D919C911397019713969C9355
:100A20008E931297203080E0380780E0480780E4FA
:100A3000580758F314962D933D934D935C93179755
:100A400008952F3F310579F4411551056105710570
:100A500019F484E08C93089564FF03C081E08C93C3
:100A600012C01C9210C02F57304013963C932E9307
:100A7000129783E08C9387E0440F551F661F771F02
:100A80008A95D1F7706414964D935D936D937C9322
:100A9000179708951F93DC01FB019C91923008F495
:100AA00047C08081823008F443C0943051F41196DD
:100AB0001C91843099F58181682F70E0611B710968
:100AC0003FC0843021F0923031F48230B9F181811D
:100AD000882389F12DC011961C9111978230F1F075
:100AE00081811817D9F412962D913C911397828128
:100AF00093818217930794F028173907BCF0149656
:100B00008D919D910D90BC91A02D248135814681C0
:100B10005781281739074A075B0718F4112341F05A
:100B20000AC082179307A407B50740F4112319F0F0
:100B300061E070E005C06FEF7FEF02C060E070E041
:100B4000CB011F910895EF92FF920F931F93FC0129
:100B50000580F681E02DE680F7808701045F1F4F56
:100B6000C8010E940A088DED96E0B8010E94AC070A
:100B700020E0E091AC06F091AD06D70156969C912D
:100B80008689981708F021E0822F1F910F91FF901E
:100B9000EF900895FF920F931F93CF93DF9399E007
:100BA000F92E21C0F894E091E206F091E306068167
:100BB0001781C8010C960E940A087894E8012296D1
:100BC000CE010E940A08F80196898091AE06891725
:100BD00010F49093AE069F9DC00111248B54994F41
:100BE000BE010E94AC078091DD068823D9F60E94E1
:100BF000DB0C2091AF063091B006821B930B9093D3
:100C0000B2068093B10689E0F82E53C00196909306
:100C1000B4068093B306215030403093B20620933F
:100C2000B106892B09F03EC02091D9063091DA0631
:100C30008091DB069091DC069093DA068093D906CA
:100C40003093DC062093DB062DC00580F681E02D75
:100C5000C681D7812091B3063091B4068A819B81E9
:100C60002817390730F1F8948E010E5F1F4FC80125
:100C70000E940A088C899D89892B21F0CE010C964F
:100C80000E940A0878949E898091AE06891710F414
:100C90009093AE069F9DC00111248B54994FB801CB
:100CA0000E94AC07E091D906F091DA068081882392
:100CB00061F62091B1063091B2068091B306909111
:100CC000B4062115310509F0A1CF9093B0068093A9
:100CD000AF069091AE0629E006C0992319F4109250
:100CE000AE0632C09150929FD0011124AB54B94F3F
:100CF0008C91882391F39093AE061196ED91FC911F
:100D000012970280F381E02D1296FC93EE931197D7
:100D1000CD010396E817F90731F482819381129689
:100D20009C938E9311971196ED91FC9112970680EA
:100D3000F781E02DF093AD06E093AC062081318180
:100D4000CF016789F9010995DF91CF911F910F912B
:100D5000FF9008950F931F93CF93DF93EB010091C2
:100D6000B3061091B406080F191F8091AC0690913C
:100D7000AD0602960E940A08E091AC06F091AD061D
:100D8000138302838091B3069091B406BF016E5F16
:100D90007F4F0817190728F48091DB069091DC0635
:100DA00004C08091D9069091DA060E94D507209759
:100DB00049F06091AC067091AD06645F7F4FCE0143
:100DC0000E94D507DF91CF911F910F910895AF92A7
:100DD000BF92CF92DF92EF92FF920F931F93CF9328
:100DE000DF936C01B62EA42E8AE190E00E94710779
:100DF000EC01009711F48FEF59C08091AC069091EF
:100E0000AD06892B21F5D093AD06C093AC0685EBDA
:100E100096E00E9498078EEB96E00E94980727ECD8
:100E2000E22E26E0F22EC7010E94980700ED16E0A0
:100E3000C8010E9498078DED96E00E949807F092F5
:100E4000DA06E092D9061093DC060093DB06EB2C61
:100E5000BB2011F0EE24E394198E188EEE8AAF8A2F
:100E6000FE01C192D1928F01CF010E94A807CE014D
:100E70000C960E94A807D987C887DB8BCA8B84E0B1
:100E800090E08E1991099D878C879E898091AE068E
:100E9000891710F49093AE0689E0989FC001112441
:100EA0008B54994FB8010E94AC0781E0DF91CF913C
:100EB0001F910F91FF90EF90DF90CF90BF90AF9078
:100EC000089508951092E7061092E606089528EE18
:100ED00033E08091E6069091E706281B390BC901A3
:100EE00008950F931F93CF93DF938C010E94D50C2D
:100EF0008091E6069091E7069801280F391F43E09C
:100F0000283E340758F48217930740F4EC01C85187
:100F1000D94F3093E7062093E60602C0C0E0D0E048
:100F20000E94B80FCE01DF91CF911F910F910895CC
:100F3000FC019C012D5F3F4F328321838FEF9FEF98
:100F40009483838336832583308727831082089593
:100F5000FC01118610860895CF93DF93AC01DB016D
:100F6000EC0129813A81F9018281938113969C9346
:100F70008E93129789819A8115969C938E931497DC
:100F80000280F381E02D75836483E9017B836A83AA
:100F9000FA017283618319965C934E93189780814E
:100FA0008F5F8083DF91CF910895CF93DF939C0172
:100FB000EB01488159818FEF4F3F580721F4F90128
:100FC000A781B08510C0D901139604C012960D9068
:100FD000BC91A02D1296ED91FC9113978081918187
:100FE0004817590798F71296ED91FC911397FB83D8
:100FF000EA83D583C483BD83AC831396DC93CE93FD
:10100000129739872887F90180818F5F8083DF916C
:10101000CF910895CF93DF93DC011296ED91FC916F
:10102000139714968D919C911597958384831496AC
:10103000CD91DC911597FB83EA831896ED91FC9195
:101040001997818192818A179B0711F4D283C183FA
:1010500019961C921E921897808181508083DF918F
:10106000CF910895FC0191E1908322E2229383E3E2
:10107000829362937293129280E88293129282E03A
:10108000829383E0829384E0829385E0829386E07A
:10109000829387E0829388E0829389E0829380E163
:1010A0008293929382E1829383E1829384E182939B
:1010B00085E1829386E1829387E1829388E182933E
:1010C00089E1829380E2829381E28293229383E298
:1010D00082934293529386E2829387E2829388E2DC
:1010E000829389E2829380E3829381E382933197B2
:1010F000CF0108951BBC8CE78ABD8BE08EBD89B7FC
:10110000806189BFA091D00AB091D10ACD91CDBFA5
:10111000DD91DEBFFF91EF91DF91CF91BF91AF9154
:101120009F918F917F916F915F914F913F912F91FF
:101130001F910F91FF90EF90DF90CF90BF90AF90F5
:101140009F908F907F906F905F904F903F902F90E7
:101150001F900F900FBE0F90089581E0089508959D
:101160000F920FB6F8940F921F9211242F923F9274
:101170004F925F926F927F928F929F92AF92BF92A7
:10118000CF92DF92EF92FF920F931F932F933F9393
:101190004F935F936F937F938F939F93AF93BF937F
:1011A000CF93DF93EF93FF93A091D00AB091D10A30
:1011B0000DB60D920EB60D920E94460E0E94EF0CD7
:1011C000A091D00AB091D10ACD91CDBFDD91DEBF03
:1011D000FF91EF91DF91CF91BF91AF919F918F914F
:1011E0007F916F915F914F913F912F911F910F913F
:1011F000FF90EF90DF90CF90BF90AF909F908F9037
:101200007F906F905F904F903F902F901F900F9026
:101210000FBE0F9008950E94B00818950F920FB658
:10122000F8940F921F9211242F923F924F925F9247
:101230006F927F928F929F92AF92BF92CF92DF92E6
:10124000EF92FF920F931F932F933F934F935F93D0
:101250006F937F938F939F93AF93BF93CF93DF93BE
:10126000EF93FF93A091D00AB091D10A0DB60D92E1
:101270000EB60D920E94EF0CA091D00AB091D10A47
:10128000CD91CDBFDD91DEBFFF91EF91DF91CF9189
:10129000BF91AF919F918F917F916F915F914F918E
:1012A0003F912F911F910F91FF90EF90DF90CF9082
:1012B000BF90AF909F908F907F906F905F904F9076
:1012C0003F902F901F900F900FBE0F900895FC013C
:1012D0000FB6F8940F92828D0F900FBE0895FC0107
:1012E000828D0895FC01828D90E0882309F491E0BD
:1012F000892F0895FC01928D20E0838D981709F4C1
:1013000021E0822F08950F931F93CF93DF93EC0179
:101310000FB6F8940F928C010F5E1F4F0DC0898994
:10132000882369F0C8010E94070E882311F00E94EB
:101330007A0D8E8D81508E8F8E8D181684F38FEFDF
:101340008E8F0F900FBE0FB6F8940F928E01085F2C
:101350001F4F0DC08885882369F0C8010E94070EC1
:10136000882311F00E947A0D8D8D81508D8F8D8D87
:10137000181684F38FEF8D8F0F900FBEDF91CF91F2
:101380001F910F910895CF93DF93EC010FB6F8945E
:101390000F928D8D8F3F09F41D8E8E8D8F3F09F436
:1013A0001E8E0F900FBE8A8D882321F4CE014196A8
:1013B0000E946F0FCE010E948309DF91CF910895A3
:1013C0000F931F938C01FC01808191810E94610722
:1013D000C8010E9461071F910F9108950F931F93F9
:1013E000CF93DF93EC01FB018A018A8D882381F181
:1013F0004881598141155105A9F08C8D2E813F817D
:10140000280F311D3F832E838A819B81281739073E
:1014100010F05F834E834C8D6E817F81CF0150E051
:101420000E94CA258A8D81508A8F8D8D8F3F69F4E5
:101430008885882361F0CE0108960E94070E8823D4
:1014400031F081E0F801808303C08F5F8D8F81E0F0
:10145000DF91CF911F910F9108957F928F929F926C
:10146000AF92BF92CF92DF92EF92FF920F931F93B2
:10147000DF93CF9300D000D00F92CDB7DEB78C01B1
:10148000962E872E5D834C83722E91E1C92ED12C2E
:10149000C00ED11E20E07E010894E11CF11C84E006
:1014A000A82EB12CAC0EBD1E01C021E00FB6F894E1
:1014B0000F92F801828D882309F448C0E680F780F6
:1014C0004081518141155105B1F0848D9701280F5C
:1014D000311D37832683828193812817390710F0C5
:1014E00057834683F801448D66817781892D982D35
:1014F00050E00E94CA257720C1F4F801828D815006
:10150000828F80819181892B29F40E947E0DF801C0
:1015100093838283F80180858823A1F0C80108960F
:101520000E94070E813071F40BC0F801F782E68249
:101530008189882339F0C6010E94070E882311F0A3
:101540000E940E090F900FBE81E059C08C819D81D1
:10155000892B19F40F900FBE51C0222319F4C70133
:101560000E94310D0F900FBE0E94D50C0FB6F8945B
:101570000F92F801858D8F3F09F4158EF801868D45
:101580008F3F09F4168E0F900FBEC701B5010E9460
:101590003C0D882371F50FB6F8940F92F801828DF7
:1015A0000F900FBE8823F9F4F80180819181892B77
:1015B00051F40FB6F8940F92F801828193810E9442
:1015C000BD0D0F900FBE6C817D81C6010E948C0FF6
:1015D000C8010E9483090E94B80F882309F065CFD3
:1015E0000E940E0962CFC8010E9483090E94B80FB1
:1015F0005CCFC8010E9483090E94B80F80E00F9061
:101600000F900F900F900F90CF91DF911F910F913E
:10161000FF90EF90DF90CF90BF90AF909F908F9012
:101620007F900895CF93DF93EC01842F4C8D44235A
:1016300059F488819981892BD9F58A819B810E94EF
:10164000900D1B821A8234C08823B1F48C819D8155
:1016500050E00E94CA258C8D2C813D81280F311DC0
:101660003D832C838A819B812817390708F1888163
:1016700099819D838C831CC08E819F8150E00E9444
:10168000CA258C8D90E044275527481B590B8E8125
:101690009F81840F951F9F838E83288139818217B4
:1016A000930730F48A819B81840F951F9F838E83DB
:1016B0008A8D8F5F8A8FDF91CF9108950F931F934B
:1016C000CF93DF93EC018A019A8D8B8D981710F0E0
:1016D00080E017C0CE01422F0E94120B8E8D8F3FEB
:1016E00069F48989882361F0CE0141960E94070E32
:1016F000882331F081E0F801808303C08F5F8E8FF3
:1017000081E0DF91CF911F910F9108957F928F9289
:101710009F92AF92BF92CF92DF92EF92FF920F9380
:101720001F93DF93CF9300D000D00F92CDB7DEB7D9
:101730008C016B015D834C83722E48E0E42EF12C0A
:10174000E80EF91E20E05E010894A11CB11C34E0F3
:10175000832E912C8C0E9D1E01C021E00FB6F894B3
:101760000F92F801928D838D9817A8F4C801B601E5
:10177000472D0E94120BF8018189882341F0C8018E
:1017800041960E94070E813011F40E940E090F90BD
:101790000FBE81E04CC08C819D81892B19F40F9084
:1017A0000FBE44C0222319F4C5010E94310D0F90D1
:1017B0000FBE0E94D50C0FB6F8940F92F801858DDC
:1017C0008F3F09F4158EF801868D8F3F09F4168E30
:1017D0000F900FBEC501B4010E943C0D882309F58E
:1017E0000FB6F8940F92F801928D0F900FBEF8018A
:1017F000838D981781F46C817D81C7010E948C0FC5
:10180000C8010E9483090E94B80F882309F0A5CF60
:101810000E940E09A2CFC8010E9483090E94B80F3E
:101820009CCFC8010E9483090E94B80F80E00F90EE
:101830000F900F900F900F90CF91DF911F910F910C
:10184000FF90EF90DF90CF90BF90AF909F908F90E0
:101850007F900895CF93DF938FE190E00E9471070E
:10186000EC010097F9F01B821A82198218821D82FE
:101870001C821F821E821A8E81E08B8F1C8E8FEF3E
:101880008D8F8E8FCE0108960E949807CE014196CB
:101890000E949807CE0160E070E040E050E020E058
:1018A0000E94860BCE01DF91CF910895AF92BF9237
:1018B000CF92DF92EF92FF920F931F93CF93DF931C
:1018C000B82EA62E882309F442C08FE190E00E9432
:1018D0007107EC010097D9F1EB2CFF24CA2CDD2411
:1018E000CE9C8001CF9C100DDE9C100D1124C801F0
:1018F00001960E9471079C0199838883009721F1CA
:10190000080F191F1B830A831A8E9D838C830894EA
:10191000E108F108EC9CC001ED9C900DFC9C900D41
:101920001124280F391F3F832E83BB8EAC8E8FEF7F
:101930008D8F8E8FCE0108960E949807CE0141961A
:101940000E9498079E0105C0CE010E94610720E019
:1019500030E0C901DF91CF911F910F91FF90EF907F
:10196000DF90CF90BF90AF9008951F93162F60E047
:101970000E94560CFC01009709F0128FCF011F91B5
:101980000895FC01828593858A529B4059F484898D
:1019900095892BE08831920729F020E0892B19F4F2
:1019A00021E001C020E0822F08958091D40A8F5F4A
:1019B0008093D40A08950FB6F8940F922091D70A15
:1019C0003091D80A0F900FBEC90108952091D70A0F
:1019D0003091D80AC90108958091DA0A089580915A
:1019E000D40A882351F081E08093D50A089580912C
:1019F000D20A81508093D20A01C099E0E091D20AC4
:101A0000E99FF0011124E252F54F8081882379F398
:101A10009091D20A89E0989FD0011124A252B54F2B
:101A20001196ED91FC9112970280F381E02D1296B0
:101A3000FC93EE931197CD010396E817F90731F463
:101A40008281938112969C938E9311971196ED91BA
:101A5000FC911297868197819093D10A8093D00A46
:101A60000895FC018091D60A80838091D70A9091D5
:101A7000D80A928381830895FC01DB010FB6F894A4
:101A80000F924D915C9111978FEF4F3F580761F185
:101A90009091D60A8081981749F02091D70A309109
:101AA000D80A818192812817390700F58091D70AD9
:101AB0009091D80A21813281821B930B841795075C
:101AC000A8F48091D70A9091D80A281B390B240FCB
:101AD000351F2D933C938091D60A80838091D70A3D
:101AE0009091D80A9283818380E001C081E00F90B9
:101AF0000FBE089581E08093D50A08952091D00A01
:101B00003091D10AC90108958091D30A882339F010
:101B10008091D40A882311F082E0089581E008952D
:101B20000F931F93CF93DF93EC01009709F19E89E8
:101B300089A19817E9F08E010E5F1F4FC8010E941E
:101B40000A0829A12E8B84E090E0821B91099D87D1
:101B50008C878091D20A821710F42093D20A89E0F0
:101B6000289FC00111248252954FB8010E94AC07F2
:101B7000DF91CF911F910F9108950F931F93CF93F2
:101B8000DF93EC01E091D00AF091D10A3E89868979
:101B90003817C0F5E091D00AF091D10A268984E087
:101BA00090E0821B91099D878C8789E0389FC00156
:101BB00011248252954F2A853B8528173907E1F475
:101BC0008E010E5F1F4FC8010E940A08E091D00AE3
:101BD000F091D10A96899E8B8091D20A891710F4D0
:101BE0009093D20A89E0989FC00111248252954FA8
:101BF000B8010E94AC0706C0E091D00AF091D10A6A
:101C000086898E8BDF91CF911F910F9108950F934D
:101C10001F93CF93DF93FC010580F681E02D0681B1
:101C20001781E8012C96CE010E940A088091D40AFF
:101C30008823A9F4E8012296CE010E940A08D8015F
:101C400056969C918091D20A891710F49093D20AEB
:101C500089E0989FC00111248252954F02C088E10B
:101C60009BE0BE010E94AC07E091D00AF091D10A3E
:101C700020E0D80156969C918689981708F021E0BB
:101C8000822FDF91CF911F910F910895FF920F93B3
:101C90001F93CF93DF938091D40A882309F08FC0DC
:101CA0008091D70A9091D80A01969093D80A809390
:101CB000D70A8091D70A9091D80A892B79F520917B
:101CC000140B3091150B8091160B9091170B90937C
:101CD000150B8093140B3093170B2093160B8091E8
:101CE000D60A8F5F8093D60AE091140BF091150B02
:101CF0008081882319F48FEF9FEF0CC0E091140BC3
:101D0000F091150B0580F681E02D0680F781E02D1E
:101D10008281938190939D0680939C062091D70A9F
:101D20003091D80A80919C0690919D06281739071A
:101D300008F44AC089E0F82EE091140BF091150BDD
:101D40008081882339F48FEF9FEF90939D068093D5
:101D50009C063AC0E091140BF091150B0580F681BA
:101D6000E02DC681D7812A813B818091D70A90914D
:101D7000D80A8217930728F430939D0620939C0677
:101D800023C08E010E5F1F4FC8010E940A088C8974
:101D90009D89892B21F0CE010C960E940A089E890C
:101DA0008091D20A891710F49093D20A9F9DC001A6
:101DB00011248252954FB8010E94AC07BDCF80918B
:101DC000D90A8F5F8093D90ADF91CF911F910F912C
:101DD000FF900895DF92EF92FF920F931F93CF939E
:101DE000DF93EC018A859B858A529B4091F58C8913
:101DF0009D892BE08831920761F1892B51F533C021
:101E0000DE88E091D00AF091D10A068992E0E92EAD
:101E1000F12CEC0EFD1EC7010E940A086E8980910C
:101E2000D20A861710F46093D20A10E0D01608F098
:101E300011E089E0689FC00111248252954FB701DB
:101E40000E94AC0707C02C9688E19BE0BE010E946F
:101E5000AC0710E0812FDF91CF911F910F91FF9080
:101E6000EF90DF9008958091D40A882349F2EBCF58
:101E7000CF93DF93EC01E091D00AF091D10A9383E4
:101E800082838091D70A9091D80AC817D90768F43D
:101E90008091160B9091170B6091D00A7091D10A26
:101EA0006E5F7F4F0E94D50717C08091140B9091F1
:101EB000150B6091D00A7091D10A6E5F7F4F0E941E
:101EC000D50780919C0690919D06C817D90720F4EC
:101ED000D0939D06C0939C06DF91CF9108950F93F8
:101EE0001F938B016091D00A7091D10A645F7F4F7C
:101EF0000E94AC078091D00A9091D10A02960E946C
:101F00000A088091D70A9091D80A800F911F0E94E9
:101F1000380F1F910F910895CF93DF93EB016091DC
:101F2000D00A7091D10A645F7F4F0E94D5078091DB
:101F3000D00A9091D10A02960E940A088FEFCF3FF3
:101F4000D80759F46091D00A7091D10A6E5F7F4F23
:101F50008AE29BE00E94AC0708C08091D70A90916A
:101F6000D80A8C0F9D1F0E94380FDF91CF910895E2
:101F7000CF92DF92FF920F931F93DF93CF930F9235
:101F8000CDB7DEB70FB6F8940F928091D40A815086
:101F90008093D40A8091D40A882309F058C0809194
:101FA000DA0A882309F453C0198229E0F22E2DC0E1
:101FB000E0911D0BF0911E0BC680D780C6010C96D8
:101FC0000E940A0886010E5F1F4FC8010E940A087E
:101FD000D60156969C918091D20A891710F490935D
:101FE000D20A9F9DC00111248252954FB8010E94D0
:101FF000AC07E091D00AF091D10AD60156969C9197
:102000008689981710F0B1E0B9838091180B882366
:1020100079F68091D90A882341F40CC00E94460EBB
:102020008091D90A81508093D90A8091D90A882356
:10203000A9F707C0E981E13021F08091D50A81300C
:1020400031F41092D50A0E940E0981E001C080E0AF
:102050000F900FBE0F90CF91DF911F910F91FF90C6
:10206000DF90CF9008950F931F93CF93DF93EC01F0
:10207000009709F43CC08091D00A9091D10AC8170A
:10208000D907A9F10FB6F8940F928A859B858A52D9
:102090009B40F1F48C899D892BE088319207C1F037
:1020A000892BB1F418C09093D20A89E0989FC0019F
:1020B00011248252954FB8010E94AC07E091D00ADA
:1020C000F091D10A9E898689981710F00E940E0916
:1020D0000F900FBE0CC08E010E5F1F4FC8010E94F3
:1020E0000A089E898091D20A8917E8F2DECFDF9133
:1020F000CF911F910F910895EF92FF920F931F932D
:10210000CF93DF938C010FB6F8940F928091D00A91
:102110009091D10A0817190719F400E010E003C0E4
:102120000115110529F4C091D00AD091D10A01C03E
:10213000E80132E0E32EF12CEC0EFD1EC7010E94F7
:102140000A088C899D89892B21F0CE010C960E946A
:102150000A088AE29BE0B7010E94AC070F900FBE0D
:10216000012BA1F48091D30A882319F00E940E0953
:102170000DC090912A0B8091DA0A981729F41092D9
:10218000D10A1092D00A02C00E94EF0CDF91CF91C9
:102190001F910F91FF90EF9008950F931F93CF938E
:1021A000DF93EC010097C9F08091D40A8F5F809390
:1021B000D40A0091D70A1091D80A8091D00A909140
:1021C000D10A02960E940A08CE01800F911F0E9438
:1021D000380F0E94B80F882311F40E940E09DF9176
:1021E000CF911F910F910895CF93DF93FC01EB01E5
:1021F0008091D40A8F5F8093D40A20813181C20FED
:10220000D31F8091D70A9091D80A8217930728F498
:10221000C217D30728F020E00CC0C217D30740F044
:102220008091D70A9091D80A20E08C179D0708F476
:1022300021E0D183C083222351F08091D00A909174
:10224000D10A02960E940A08CE010E94380F0E940D
:10225000B80F882311F40E940E09DF91CF910895E1
:10226000EF92FF920F931F93CF93DF938C010FB6E2
:10227000F8940F928091D00A9091D10A081719070B
:1022800019F400E010E003C00115110529F4C09114
:10229000D00AD091D10A01C0E80142E0E42EF12C2D
:1022A000EC0EFD1EC7010E940A088C899D89892BAE
:1022B00021F0CE010C960E940A0881E29BE0B70152
:1022C0000E94AC078091DB0A8F5F8093DB0A8091CC
:1022D000DC0A8F5F8093DC0A0F900FBE8091D30AD7
:1022E000882321F0012B11F40E940E09DF91CF9178
:1022F0001F910F91FF90EF900895F8941092D30AD8
:102300000E94AF0808950F931F938091DB0A8823E2
:10231000E1F38091D40A8F5F8093D40A1091210B4E
:102320000E94B80F112389F30FB6F8940F92E09131
:10233000260BF091270B06811781C80102960E9497
:102340000A088091DA0A81508093DA0A8091DB0AC8
:1023500081508093DB0A0F900FBEF8018789908D22
:102360000E946107C8010E946107CFCF2F923F9260
:102370005F926F927F928F929F92AF92BF92CF9215
:10238000DF92EF92FF920F931F93DF93CF9300D0D2
:1023900000D0CDB7DEB79A8389834B015A0119016A
:1023A000502E370182E290E00E9471078B839C835C
:1023B0008B819C81892B89F0C114D10421F4C50142
:1023C0000E9471076C01EB81FC81D08EC78AC11419
:1023D000D10429F4CF010E9461078FEFDBC0C60151
:1023E00065EA70E0A5010E94D3250894A108B10810
:1023F000EB81FC81E788F08CEA0CFB1CCF0149964D
:10240000B40148E050E00E94DA25EB81FC8110A283
:10241000052DF3E0F51508F403E0EB81FC81068B54
:1024200001A362E0C62ED12CCE0EDF1EC6010E9493
:10243000A8078B819C810C960E94A8078B819C81A8
:10244000FC019187808784E090E0801B910995874B
:102450008487F38BE28BC70169817A81A1010E9495
:102460003208EB81FC81918380836114710421F037
:10247000CF01F301918380830FB6F8940F9280917E
:10248000DA0A8F5F8093DA0A8091D00A9091D10A9C
:10249000892BE1F5EB81FC81F093D10AE093D00A1E
:1024A0008091DA0A813009F042C08EED9AE00E94F4
:1024B000980787EE9AE00E94980780EF9AE00E94C2
:1024C000980789EF9AE00E94980752E0E52E5BE0BA
:1024D000F52EC7010E9498070BE01BE0C8010E947F
:1024E000980788E19BE00E94980781E29BE00E94A8
:1024F00098078AE29BE00E949807F092150BE09201
:10250000140B1093170B0093160B11C08091D30A74
:10251000882369F4E091D00AF091D10A868958168F
:1025200030F08B819C819093D10A8093D00AEB810B
:10253000FC8196898091DD0A891710F49093DD0A59
:102540008091DC0A8F5F8093DC0AEB81FC819689A5
:102550008091D20A891710F49093D20AEB81FC8102
:10256000868929E0829FC00111248252954FB601CD
:102570000E94AC070F900FBE8091D30A882349F0C8
:10258000E091D00AF091D10A8689851510F40E9455
:102590000E0981E00F900F900F900F90CF91DF9177
:1025A0001F910F91FF90EF90DF90CF90BF90AF9071
:1025B0009F908F907F906F905F903F902F900895A5
:1025C000AF92BF92CF92DF92EF92FF920F9383E888
:1025D00091E160E670E04AEF50E020E030E000E09A
:1025E000EE24FF24CC24DD24AA24BB240E94B611AF
:1025F000813069F40E94CF13813049F4F8948093BC
:10260000D30A1092D80A1092D70A0E947A080F9122
:10261000FF90EF90DF90CF90BF90AF900895FC01B6
:102620000FB6F8940F920F900FBE20E0828593852D
:10263000892B09F021E0822F0895FC01878590897C
:1026400008950F931F93DF93CF9300D000D00F9284
:10265000CDB7DEB7FC018091330B9091340B00971E
:1026600011F480E024C069835B834A83FD83EC839B
:1026700021153105A9F40E94840D2091330B30916E
:10268000340BBE016F5F7F4F813019F4C901A8017F
:1026900003C0C90140E050E020E00E94860B07C063
:1026A000BE016F5F7F4FA90120E00E945E0B0F907B
:1026B0000F900F900F900F90CF91DF911F910F917E
:1026C0000895EF92FF920F931F930FB6F8940F9215
:1026D0008091330B9091340B892BE1F487E3E82E42
:1026E0008BE0F82EC7010E94980700E41BE0C801A8
:1026F0000E949807F0924A0BE092490B10934C0B02
:1027000000934B0B85E065E00E94560C9093340BD0
:102710008093330B0F900FBE1F910F91FF90EF909E
:1027200008957F928F929F92AF92BF92CF92DF9245
:10273000EF92FF920F931F93CF93DF936C017B0176
:10274000742E590148016115710519F400E010E07B
:1027500017C083E190E00E947107EC018C010097A3
:1027600079F00E946113D982C882FD86EC867E864C
:10277000B88AAF869A8A898ACE0102960E94A807F3
:10278000C801DF91CF911F910F91FF90EF90DF90E3
:10279000CF90BF90AF909F908F907F900895AF9211
:1027A000BF92CF92DF92EF92FF920F930E9461133C
:1027B0008091330B9091340B892B11F480E011C080
:1027C00086E994E165E670E04AEF50E020E030E011
:1027D00002E0EE24FF24CC24DD24AA24BB240E94A2
:1027E000B6110F91FF90EF90DF90CF90BF90AF9018
:1027F0000895AF92BF92CF92DF92EF92FF920F9324
:102800001F93CF93DF935C010E94DB0C7C018091CE
:10281000350B9091360BE816F906C0F14EC01596AF
:10282000ED91FC911697008111811596ED91FC9127
:102830001697C681D78192E0C92ED12CCC0EDD1E11
:10284000C6010E940A08E989FA89CE0109958E8598
:102850008130E1F48C859D85800F911F0817190741
:1028600060F49B838A83D987C8878091490B9091B4
:102870004A0BB6010E94D50709C0CE0160E0A8014D
:1028800020E030E000E010E00E942113A091490B0D
:10289000B0914A0B8C91882311F680914B0B90914B
:1028A0004C0B90934A0B8093490BB0934C0BA09325
:1028B0004B0B81E0F501808302C0F5011082F0929C
:1028C000360BE092350BC701DF91CF911F910F912D
:1028D000FF90EF90DF90CF90BF90AF900895FC01F4
:1028E00073836283918780874617570768F0421B7E
:1028F000530B8485958548175907B0F4329680911B
:102900004B0B90914C0B0BC04217530718F46217F6
:10291000730750F432968091490B90914A0BBF0196
:102920000E94D50780E0089581E008958F929F92DC
:10293000AF92BF92CF92DF92EF92FF920F931F93CD
:10294000DF93CF9300D000D000D0CDB7DEB75E01CB
:102950000894A11CB11C22E0822E912C8C0E9D1E8D
:10296000E091490BF0914A0B8081FF24882329F4E0
:10297000FF24F39400E010E005C00580F681E02D0F
:10298000008111810E94D50CC5010E94F9136C01D0
:102990008981882309F048C0FF20B1F5C016D1060F
:1029A00098F10E94B80FE091490BF0914A0B058015
:1029B000F681E02DE680F780C70102960E940A08A2
:1029C000D7011E968C911E978130B1F41C966D91A3
:1029D0007C911D97600F711FC701A60198010E948D
:1029E0006F14813049F4C70160E0A80120E030E0B5
:1029F00000E010E00E942113D7015196ED91FC9167
:102A00005297C701099512C00C191D098091330B0B
:102A10009091340BB8010E94C3090E94B80F88231B
:102A200029F40E940E0902C00E94B80FC5010E943D
:102A3000F9137C0150C00D811E810115110549F06B
:102A4000F80182859385892B21F0C80102960E94A6
:102A50000A088A81823069F18330D1F18823D9F55F
:102A60002B813C81D8011C966D917C911D97620F42
:102A7000731FC801A7010E946F14813061F5D8014E
:102A80005196ED91FC915297C8010995F801868500
:102A9000813009F5448555858B819C81480F591FEC
:102AA000C80160E020E030E000E010E00E94211367
:102AB00012C06B817C81D8011D967C936E931C970C
:102AC0006E0D7F1DC801A70197010E946F1403C0FE
:102AD000C8010E9461078091330B9091340BB401BF
:102AE00040E050E020E00E942D0A882309F438CF0E
:102AF000A2CF0F931F93CF93DF93CDE4DBE009E8E0
:102B00001BE0E881F9813097D1F08D818130B9F4F3
:102B1000D8012D913C912115310529F08A819B81A5
:102B20008217930738F409958A819B81F801918374
:102B3000808305C021503040D8012D933C932696C8
:102B40000E5F1F4FBBE0C938DB07D9F6DF91CF918D
:102B50001F910F910895CF93DF93EC014A3010F04D
:102B600081E026C0842F90E0AC01440F551FFA018C
:102B7000E80FF91FDF01AA0FBB1FA35BB44F8D91B4
:102B80009C911197892B11F082E012C01196DC9371
:102B9000CE93EE0FFF1FE15BF44F7183608381E002
:102BA00015968C93FA01E757F44F2083118280E049
:102BB000DF91CF91089590E0FC01EE0FFF1FE80F29
:102BC000F91FEE0FFF1FE35BF44F80819181892B8A
:102BD00011F483E0089586E0DF011D928A95E9F7FC
:102BE00080E0089590E0FC01EE0FFF1FE80FF91F51
:102BF000EE0FFF1FE35BF44F80819181892B11F46D
:102C000083E00895158280E0089590E0FC01EE0FC6
:102C1000FF1FE80FF91FEE0FFF1FE35BF44F8081EA
:102C20009181892B11F483E0089581E0858380E010
:102C300008950E94FC1689E795E140E550E060E0C8
:102C400070E02CE70E949E1680E00E94AC1608956A
:102C500091B58770987F892B81BD81B5886081BDD2
:102C6000089588E181BD11BC089588E18AB986E89C
:102C700080BD83E389B910BC08955D9BFECF8CB9FC
:102C800008955F9BFECF8CB1089586B78B7F86BF7A
:102C90008AE080B9089584EA86BF06B607FEFDCFB4
:102CA00081B1887F089584EA86BF06B607FEFDCF0E
:102CB00081B1887F0895880F862B83B984E886BF09
:102CC00086B78F7D86BF06B607FEFDCF81B1887FB0
:102CD000089583B984E886BF06B607FEFDCF81B1AB
:102CE000887F0895FC01662339F0613051F484E84F
:102CF00086BF86B7806404C084E886BF86B78F7BB2
:102D000086BF06B607FEFDCF83B1808381B1887F81
:102D1000089584E986BF81B1887F089581B1887F55
:102D2000089540939F0B5093A00B6093A10B709359
:102D3000A20B9093AA0B8093A90B08959093A40BD8
:102D40008093A30B40939F0B5093A00B6093A10B18
:102D50007093A20B2CBF0895882329F483B7887F32
:102D6000826083BF0895823021F48EB5887F8260AF
:102D70008EBD0895882321F483B7887F83BF08958B
:102D8000823019F48EB5887F8EBD0895882319F09E
:102D9000813029F402C06CBF08957BBD6ABD0895DF
:102DA00090939E0B80939D0B089526B537B5C9016E
:102DB0000895882319F0813041F404C08EB58064F1
:102DC0008EBD08958EB58F7B8EBD0895882361F4E6
:102DD000662319F0623079F403C089B7816002C0BC
:102DE00089B7826089BF0895823029F4662319F477
:102DF00089B7806289BF089583B7806483BF83B732
:102E0000886083BF80E063E00E94E61683B78B7F13
:102E100083BF83B78D7F83BF83B78E7F83BF1FBC84
:102E200082E48EBD0895882361F4662319F0623030
:102E300079F403C089B78E7F02C089B78D7F89BFBF
:102E40000895823029F4662319F489B78F7D89BFEC
:102E500008951F920F920FB60F9211242F933F9354
:102E60004F935F936F937F938F939F93AF93BF9392
:102E7000EF93FF938091AB0B9091AC0BA091AD0BB6
:102E8000B091AE0B0196A11DB11D8093AB0B909339
:102E9000AC0BA093AD0BB093AE0B20919F0B309178
:102EA000A00B4091A10B5091A20B82179307A4078E
:102EB000B50779F4E091A90BF091AA0B309749F08E
:102EC00009951092AB0B1092AC0B1092AD0B1092B7
:102ED000AE0BFF91EF91BF91AF919F918F917F9139
:102EE0006F915F914F913F912F910F900FBE0F9077
:102EF0001F9018951F920F920FB60F9211242F93C7
:102F00003F934F935F936F937F938F939F93AF9371
:102F1000BF93EF93FF938091A50B9091A60BA09187
:102F2000A70BB091A80B0196A11DB11D8093A50B15
:102F30009093A60BA093A70BB093A80B20919F0B87
:102F40003091A00B4091A10B5091A20B82179307D7
:102F5000A407B50779F4E091A30BF091A40B309787
:102F600049F009951092A50B1092A60B1092A70B91
:102F70001092A80BFF91EF91BF91AF919F918F910C
:102F80007F916F915F914F913F912F910F900FBE65
:102F90000F901F9018951F920F920FB60F92112449
:102FA0002F933F934F935F936F937F938F939F9351
:102FB000AF93BF93EF93FF93E0919D0BF0919E0B26
:102FC000309709F00995FF91EF91BF91AF919F91D3
:102FD0008F917F916F915F914F913F912F910F90C2
:102FE0000FBE0F901F9018958FB9779BFECF089555
:102FF0008FB9779BFECF8FB10895779BFECF8FB1AE
:10300000089581E065E041E00E94B21881E067E048
:1030100041E00E94B21881E066E040E00E94B218F0
:103020008AE58DB908958FB780688FBF08958FB7EF
:103030008F778FBF089585B7816085BF85B7826020
:1030400085BF8BB780648BBF0895E62FF0E0EE0F4D
:10305000FF1FE155F44F9183808308951F920F92D3
:103060000FB60F9211242F933F934F935F936F935B
:103070007F938F939F93AF93BF93EF93FF93E091D1
:10308000AF0BF091B00B309709F00995FF91EF91DC
:10309000BF91AF919F918F917F916F915F914F9170
:1030A0003F912F910F900FBE0F901F9018951F9278
:1030B0000F920FB60F9211242F933F934F935F936C
:1030C0006F937F938F939F93AF93BF93EF93FF93F0
:1030D000E091B10BF091B20B309709F00995FF9197
:1030E000EF91BF91AF919F918F917F916F915F9180
:1030F0004F913F912F910F900FBE0F901F901895F9
:103100001F920F920FB60F9211242F933F934F935C
:103110005F936F937F938F939F93AF93BF93EF933F
:10312000FF93E091B30BF091B40B309709F0099540
:10313000FF91EF91BF91AF919F918F917F916F918F
:103140005F914F913F912F910F900FBE0F901F9065
:1031500018951ABA17BA14BA11BA1BBA18BA15BA0E
:1031600012BA08954130B1F5813099F0813030F0D4
:103170008230D1F0833009F067C021C02AB381E0EA
:1031800090E002C0880F991F6A95E2F7282B2ABBAE
:10319000089527B381E090E002C0880F991F6A95D7
:1031A000E2F7282B27BB089524B381E090E002C00A
:1031B000880F991F6A95E2F7282B24BB089521B345
:1031C00081E090E002C0880F991F6A95E2F7282BF2
:1031D00021BB08954423C1F5813099F0813028F056
:1031E0008230D9F0833081F524C02AB381E090E0A9
:1031F00002C0880F991F6A95E2F7809582238ABBE7
:10320000089527B381E090E002C0880F991F6A9566
:10321000E2F78095822387BB089524B381E090E094
:1032200002C0880F991F6A95E2F78095822384BBBC
:10323000089521B381E090E002C0880F991F6A953C
:10324000E2F78095822381BB08954130B1F581304A
:1032500099F0813030F08230D1F0833009F067C0CE
:1032600021C02BB381E090E002C0880F991F6A95BE
:10327000E2F7282B2BBB089528B381E090E002C031
:10328000880F991F6A95E2F7282B28BB089525B36C
:1032900081E090E002C0880F991F6A95E2F7282B21
:1032A00025BB089522B381E090E002C0880F991FEA
:1032B0006A95E2F7282B22BB08954423C1F581309B
:1032C00099F0813028F08230D9F0833081F524C024
:1032D0002BB381E090E002C0880F991F6A95E2F756
:1032E000809582238BBB089528B381E090E002C0D3
:1032F000880F991F6A95E2F78095822388BB08950D
:1033000025B381E090E002C0880F991F6A95E2F72B
:103310008095822385BB089522B381E090E002C0AE
:10332000880F991F6A95E2F78095822382BB0895E2
:10333000813049F0813028F0823039F08330B1F4A7
:103340000DC089B303C086B301C083B390E002C04F
:10335000959587956A95E2F78170089580B390E01E
:1033600002C0959587956A95E2F78170089581303E
:1033700049F0813028F0823039F0833041F406C0C2
:103380006ABB089567BB089564BB089561BB089547
:10339000813049F0813028F0823039F0833041F4B7
:1033A00006C06BBB089568BB089565BB089562BBFA
:1033B0000895813049F0813028F0823039F083302F
:1033C00041F406C089B3089586B3089583B3089580
:1033D00080B30895813091F0813028F08230C9F0B7
:1033E000833061F521C02BB381E090E002C0880FEB
:1033F000991F6A95E2F728272BBB089528B381E02F
:1034000090E002C0880F991F6A95E2F7282728BB31
:10341000089525B381E090E002C0880F991F6A9556
:10342000E2F7282725BB089522B381E090E002C08F
:10343000880F991F6A95E2F7282722BB08953F98C5
:103440003E9A3D98329A319A309835983398379A07
:10345000089597B18770907E892B87B9369A349BEF
:10346000FECF349A24B135B1C901089582E064E0F9
:1034700040E00E94251982E065E040E00E942519A5
:1034800082E066E040E00E94251982E067E040E0CB
:103490000E9425190895AF92BF92CF92DF92EF92CA
:1034A000FF920F931F935B016C0182E064E040E0A8
:1034B0000E94251982E065E040E00E94251982E023
:1034C00066E040E00E94251982E067E041E00E944A
:1034D0002519C601B50120E030E04AEF54E40E940E
:1034E0001F027B018C0120E030E040E85FE30E9496
:1034F000790388231CF461E070E024C0C801B7019F
:1035000020E03FEF4FE757E40E9419031816B4F488
:10351000C601B50120E030E040E251E40E941F0204
:103520000E94490088EC90E005C0FC013197F1F75A
:103530006150704061157105C1F707C0C801B7013E
:103540000E944900CB010197F1F782E064E040E07E
:103550000E94251982E065E040E00E94251982E082
:1035600066E041E00E94251982E067E040E00E94A9
:103570002519C801B70120E030E040E85FE30E9470
:10358000790388231CF461E070E024C0C801B7010E
:1035900020E03FEF4FE757E40E9419031816B4F4F8
:1035A000C601B50120E030E040E251E40E941F0274
:1035B0000E94490088EC90E005C0FC013197F1F7CA
:1035C0006150704061157105C1F707C0C801B701AE
:1035D0000E944900CB010197F1F782E064E040E0EE
:1035E0000E94251982E065E041E00E94251982E0F1
:1035F00066E040E00E94251982E067E040E00E941A
:103600002519C801B70120E030E040E85FE30E94DF
:10361000790388231CF461E070E024C0C801B7017D
:1036200020E03FEF4FE757E40E9419031816B4F467
:10363000C601B50120E030E040E251E40E941F02E3
:103640000E94490088EC90E005C0FC013197F1F739
:103650006150704061157105C1F707C0C801B7011D
:103660000E944900CB010197F1F782E064E041E05C
:103670000E94251982E065E040E00E94251982E061
:1036800066E040E00E94251982E067E040E00E9489
:103690002519C801B70120E030E040E85FE30E944F
:1036A000790388231CF461E070E024C0C801B701ED
:1036B00020E03FEF4FE757E40E9419031816B4F4D7
:1036C000C601B50120E030E040E251E40E941F0253
:1036D0000E94490088EC90E005C0FC013197F1F7A9
:1036E0006150704061157105C1F707C0C801B7018D
:1036F0000E944900CB010197F1F71F910F91FF90B4
:10370000EF90DF90CF90BF90AF900895AF92BF92AF
:10371000CF92DF92EF92FF920F931F935B016C01A8
:1037200082E064E041E00E94251982E065E040E02B
:103730000E94251982E066E040E00E94251982E09F
:1037400067E040E00E942519C601B50120E030E0A5
:103750004AEF54E40E941F027B018C0120E030E01C
:1037600040E85FE30E94790388231CF461E070E085
:1037700024C0C801B70120E03FEF4FE757E40E94A3
:1037800019031816B4F4C601B50120E030E040E298
:1037900051E40E941F020E94490088EC90E005C09D
:1037A000FC013197F1F76150704061157105C1F767
:1037B00007C0C801B7010E944900CB010197F1F78A
:1037C00082E064E040E00E94251982E065E041E08B
:1037D0000E94251982E066E040E00E94251982E0FF
:1037E00067E040E00E942519C801B70120E030E001
:1037F00040E85FE30E94790388231CF461E070E0F5
:1038000024C0C801B70120E03FEF4FE757E40E9412
:1038100019031816B4F4C601B50120E030E040E207
:1038200051E40E941F020E94490088EC90E005C00C
:10383000FC013197F1F76150704061157105C1F7D6
:1038400007C0C801B7010E944900CB010197F1F7F9
:1038500082E064E040E00E94251982E065E040E0FB
:103860000E94251982E066E041E00E94251982E06D
:1038700067E040E00E942519C801B70120E030E070
:1038800040E85FE30E94790388231CF461E070E064
:1038900024C0C801B70120E03FEF4FE757E40E9482
:1038A00019031816B4F4C601B50120E030E040E277
:1038B00051E40E941F020E94490088EC90E005C07C
:1038C000FC013197F1F76150704061157105C1F746
:1038D00007C0C801B7010E944900CB010197F1F769
:1038E00082E064E040E00E94251982E065E040E06B
:1038F0000E94251982E066E040E00E94251982E0DE
:1039000067E041E00E942519C801B70120E030E0DE
:1039100040E85FE30E94790388231CF461E070E0D3
:1039200024C0C801B70120E03FEF4FE757E40E94F1
:1039300019031816B4F4C601B50120E030E040E2E6
:1039400051E40E941F020E94490088EC90E005C0EB
:10395000FC013197F1F76150704061157105C1F7B5
:1039600007C0C801B7010E944900CB010197F1F7D8
:103970001F910F91FF90EF90DF90CF90BF90AF908D
:10398000089582E064E041E00E94B21882E065E0C0
:1039900041E00E94B21882E066E041E00E94B21865
:1039A00082E067E041E00E94B21808958A3048F44E
:1039B000E82FF0E0EF55F94F6081609580E00E94BC
:1039C000C819089580E06FEF0E94B71908950F930A
:1039D0001F93182F80E060E041E00E94251980E0ED
:1039E00061E040E00E94251981E0612F0E94C81922
:1039F00080E062E041E00E94251900ED17E0C80177
:103A00000197F1F780E062E040E00E942519C801CB
:103A10000197F1F71F910F9108950E94E71C0895F7
:103A2000AF92BF92CF92DF92EF92FF920F931F93CC
:103A3000DF93CF93CDB7DEB72A970FB6F894DEBFEA
:103A40000FBECDBF7B018C015E010894A11CB11C8F
:103A50008AE0F50111928A95E9F7650118C0C8015D
:103A6000B7012AE030E040E050E00E947125605D3F
:103A7000F60161936F01C801B7012AE030E040E030
:103A800050E00E947125C901DA017C018D018C2D65
:103A90008A19E114F1040105110509F7F82EFA94C9
:103AA0008F2D992787FD90958E010F5F1F4F080F6F
:103AB000191F07C0F80180810E94E71CFA94015089
:103AC0001040F7FEF7CF2A960FB6F894DEBF0FBE70
:103AD000CDBFCF91DF911F910F91FF90EF90DF90BD
:103AE000CF90BF90AF900895CF93DF93EC0103C0C8
:103AF0000E94E71C219688818823D1F7DF91CF911E
:103B000008950F931F93182F80E060E040E00E941B
:103B1000251980E061E040E00E94251981E0612FD5
:103B20000E94C81980E062E041E00E94251900ED82
:103B300017E0C8010197F1F780E062E040E00E94E1
:103B40002519C8010197F1F71F910F91089581E0A0
:103B50000E94811D08950F931F93CF93DF938B01D4
:103B6000883090F4880F880F880F805C0E94811D38
:103B7000C0E0D0E0F801EC0FFD1F80810E94E71C3F
:103B80002196C830D105B1F7DF91CF911F910F91E8
:103B90000895882319F0813051F405C0862F80588C
:103BA0000E94811D0895862F80540E94811D0895D2
:103BB0000F931F9381E06FEF0E94B71980E060E0E0
:103BC00041E00E94B21880E061E041E00E94B2183A
:103BD00080E062E041E00E94B21884EF91E028ECBE
:103BE00030E0F9013197F1F70197D9F788E30E94A6
:103BF000811D00ED17E0C8010197F1F78EE00E94EA
:103C0000811DC8010197F1F781E00E94811D80EAC2
:103C10009FE00197F1F786E00E94811D1F910F91AF
:103C200008958F929F92BF92CF92DF92EF92FF9270
:103C30000F931F93CF93DF936C01EE24EA94C0E0BF
:103C4000D0E090E2892E9EE4992EBC2E81E06C2F6C
:103C500040E00E94251986010C0F1D1F84E0F82EFC
:103C600081E06F2D0E949819882359F481E06F2D0F
:103C70000E9498198823D1F3C4010197F1F7F80144
:103C8000E080F3940D5F1F4FF8E0FF1649F781E0E5
:103C90006B2D41E00E9425192196C330D105A9F66C
:103CA0008E2DDF91CF911F910F91FF90EF90DF90BC
:103CB000CF90BF909F908F90089581E060E041E0A9
:103CC0000E94B21881E061E041E00E94B21881E0F8
:103CD00062E041E00E94B21881E064E040E00E94AE
:103CE000B21881E065E040E00E94B21881E066E031
:103CF00040E00E94B21881E067E040E00E94B21804
:103D000081E060E041E00E94251981E061E041E04E
:103D10000E94251981E062E041E00E94251981E0BE
:103D200064E041E00E94251981E065E041E00E94E5
:103D3000251981E066E041E00E94251981E067E0F5
:103D400041E00E9425190895E199FECF9FBB8EBBEB
:103D5000E09A8DB30895DF93CF93CDB7DEB729975F
:103D60000FB6F894DEBF0FBECDBF6091BF0B89E0E8
:103D7000689F9001112428533F4F8091B50B898390
:103D80008091B60B8A838091B70B8B838091B80B9F
:103D90008C838091B90B8D838091BA0B8E83809137
:103DA000BC0B8F838091BD0B9091BE0B9987888748
:103DB000FE013196AE01465F5F4FE199FECF3FBBFA
:103DC0002EBB81918DBBE29AE19A2F5F3F4FE417A2
:103DD000F50799F7862F90E0019664E170E00E9464
:103DE0005E25282F8093BF0BE199FECF8AEF90E0EC
:103DF0009FBB8EBB2DBBE29AE19A29960FB6F89431
:103E0000DEBF0FBECDBFCF91DF910895482F8091C7
:103E1000BB0B90E09C01220F331FE199FECF3FBB0B
:103E20002EBB4DBBE29AE19AE199FECF2F5F3F4F47
:103E30003FBB2EBB6DBBE29AE19A019664E170E054
:103E40000E945E25282F8093BB0BE199FECF84E66C
:103E500090E09FBB8EBB2DBBE29AE19A0895CF9371
:103E6000DF93EC0103C00E943D16219688818823D0
:103E7000D1F7DF91CF910895FF920F931F9383E0C5
:103E800067E00E949819F82E83E066E00E94981976
:103E9000082F83E065E00E949819182FFF20D9F5BC
:103EA00080919E068130B9F590E08091B50B882312
:103EB00009F491E09093B50B992311F482E001C0CD
:103EC00081E061E00E94061F8DE690E00E942F1FB6
:103ED0008091B50B882319F480E890E002C086E851
:103EE00090E00E942F1F83E064E041E00E942519CA
:103EF00088E592E028EC30E0F9013197F1F701977D
:103F0000D9F783E064E040E00E9425198091BC0B62
:103F10008F5F8093BC0B0023D9F580919F06813081
:103F2000B9F590E08091B60B882309F491E0909365
:103F3000B60B992311F482E001C081E062E00E9497
:103F4000061F8BE890E00E942F1F8091B60B8823FC
:103F500019F480E890E002C086E890E00E942F1FEC
:103F600083E064E041E00E94251988E592E028ECB6
:103F700030E0F9013197F1F70197D9F783E064E078
:103F800040E00E9425198091BC0B8F5F8093BC0B91
:103F9000112309F04BC08091A006813009F046C082
:103FA00090E08091B70B882309F491E09093B70BD0
:103FB00060E0911161E083E00E94061F8091B70BE1
:103FC0008823C1F083E064E041E00E94251988E580
:103FD00092E028EC30E0F9013197F1F70197D9F739
:103FE00083E064E040E00E9425198AE990E00E94A5
:103FF0002F1F17C086EB90E00E942F1F83E064E024
:1040000041E00E94251988E592E028EC30E0F901B2
:104010003197F1F70197D9F783E064E040E00E941F
:1040200025198091BC0B8F5F8093BC0BF0929E068C
:1040300000939F061093A0061F910F91FF90089583
:104040000F931F931091B90B0091BA0B80E066E0BB
:104050000E9498191092B90B882319F481E080937B
:10406000B90B80E067E00E9498191092BA0B882380
:1040700019F481E08093BA0B8091B90B882311F079
:104080001092BA0B112369F48823A9F085E061E04E
:104090000E94061F8BEC90E00E942F1F83EF90E0A0
:1040A00008C0882341F485E063E00E94061F85E193
:1040B00091E00E942F1F8091BA0B002381F4882386
:1040C000F1F08091B90B8823D1F481E08093B80B93
:1040D00084E061E00E94061F86E391E00EC0882321
:1040E00071F48091B90B882351F41092B80B84E0DD
:1040F00062E00E94061F83E591E00E942F1F1F913E
:104100000F910895DF92EF92FF920F931F93CF9339
:10411000DF9381E791E00E942F1F8091BB0B8823E2
:1041200029F48AE891E00E942F1FA1C0D82E863082
:1041300010F075E0D72E863010F480E001C0855075
:10414000C0E0D0E0E82EFF248FC0CE018E0D9F1D71
:1041500064E170E00E945E2590E0880F991FE1996C
:10416000FECF9FBB8EBBE09A0DB3E199FECF0196C7
:104170009FBB8EBBE09A1DB38CEA91E00E942F1F7B
:104180002196CE016AE070E00E945E25862F805D58
:104190000E943D16CE016AE070E00E945E25805DBF
:1041A0000E943D1684EB91E00E942F1F033041F1E5
:1041B000043030F4013051F0023009F04DC013C02A
:1041C000043031F1053009F047C034C0113019F422
:1041D00087EB91E043C0123019F483ED91E03EC0CB
:1041E0008BEE91E03BC0113019F480E092E036C0D4
:1041F000123019F48DE192E031C086E392E02EC0D6
:10420000112319F08CE492E029C086E692E026C0E2
:10421000112319F482E892E021C0113019F481E9E8
:1042200092E01CC0123019F48FE992E017C08EEAB8
:1042300092E014C0113019F48BEB92E00FC01230F1
:1042400019F483ED92E00AC0133019F485EE92E080
:1042500005C087EF92E002C088E093E00E942F1F24
:1042600086E193E00E942F1FCD1508F46ECF89E1FF
:1042700093E00E942F1FDF91CF911F910F91FF902C
:10428000EF90DF90089580E393E00E942F1F8091CC
:10429000B50B882319F480E593E002C084E593E030
:1042A0000E942F1F87E593E00E942F1F8091B60B7D
:1042B000882319F480E593E002C084E593E00E942E
:1042C0002F1F83E693E00E942F1F8091B70B882356
:1042D00019F480E593E002C084E593E00E942F1F6B
:1042E00080E793E00E942F1F8091B80B882319F478
:1042F00080E593E002C084E593E00E942F1F88E7E9
:1043000093E00E942F1F8091B90B882319F081E858
:1043100093E009C08091BA0B882319F081E993E0FA
:1043200002C08BE993E00E942F1F82EA93E00E9473
:104330002F1F8091BC0B6AE00E943E25805D0E9489
:104340003D168091BC0B6AE00E943E25892F805D5E
:104350000E943D168FEA93E00E942F1F8091BD0BB3
:104360009091BE0B6AE070E00E944A25862F805D26
:104370000E943D168091BD0B9091BE0B6AE070E0EB
:104380000E944A25805D0E943D168AEB93E00E94C0
:104390002F1F0895AF92BF92CF92DF92EF92FF92BC
:1043A0000F931F93DF93CF93CDB7DEB729970FB647
:1043B000F894DEBF0FBECDBF81ED93E00E942F1FAA
:1043C000E199FECF8AEF90E09FBB8EBBE09AFDB2F1
:1043D00083E18F1510F0FF2029F480EF93E00E9415
:1043E0002F1FBCC000E010E0F9E0EF2E5E01089442
:1043F000A11CB11CEAE0CE2ED12CCC0EDD1EC801D2
:1044000064E170E00E945E258E9D90011124285386
:104410003F4FF501E199FECF3FBB2EBBE09A8DB334
:1044200081932F5F3F4FEC15FD05A1F78BE094E0E2
:104430000E942F1F0F5F1F4FC8016AE070E00E94AB
:104440005E25862F805D0E943D16C8016AE070E0FF
:104450000E945E25805D0E943D1685E194E00E94E9
:104460002F1F88E194E00E942F1F8981882319F46F
:1044700084E294E002C089E294E00E942F1F8DE262
:1044800094E00E942F1F8A81882319F484E294E02B
:1044900002C089E294E00E942F1F86E394E00E940C
:1044A0002F1F8B81882319F484E294E002C089E2F3
:1044B00094E00E942F1F80E494E00E942F1F8C81C3
:1044C000882319F484E294E002C089E294E00E9417
:1044D0002F1F85E494E00E942F1F8D81882319F0FF
:1044E0008BE494E008C08E81882319F08CE594E079
:1044F00002C087E694E00E942F1F8FE694E00E949E
:104500002F1F8F816AE00E943E25805D0E943D162C
:104510008F816AE00E943E25892F805D0E943D16B2
:1045200085E794E00E942F1F888599856AE070E0F6
:104530000E944A25862F805D0E943D1688859985B8
:104540006AE070E00E944A25805D0E943D168EE779
:1045500094E00E942F1F0F1508F451CF89E193E0DA
:104560000E942F1F29960FB6F894DEBF0FBECDBF55
:10457000CF91DF911F910F91FF90EF90DF90CF903F
:10458000BF90AF90089580E060E00E94C91D85E86B
:1045900094E00E94741D8091B50B882319F480E586
:1045A00093E002C089E294E00E94741D88E894E0E0
:1045B0000E94741D8091B60B882319F480E593E066
:1045C00002C089E294E00E94741D8CE894E00E948D
:1045D000741D8091B80B882319F480E593E002C024
:1045E00084E593E00E94741D81E060E00E94C91D93
:1045F0008091B90B882319F080E994E006C080917E
:10460000BA0B882329F081EA94E00E94741D089572
:1046100081EB94E00E94741D8091B70B882319F4FC
:1046200084E294E002C086EB94E00E94741D8BEB60
:1046300094E00E94741D6091BC0B70E080E090E0FB
:104640000E94101D089540E08091B50B811141E05A
:1046500080E063E00E94251940E08091B60B811153
:1046600041E080E064E00E94251940E08091B80BB1
:10467000811141E082E067E00E9425198091B70B2B
:104680008823B9F08091C50B8F5F8093C50B82336F
:10469000A8F01092C50B90E08091C60B882309F416
:1046A00091E09093C60B40E0911141E083E064E01B
:1046B00003C083E064E040E00E9425190E941F1AB5
:1046C00083E063E041E00E94B21885E00E94291A6D
:1046D0008059914020F483E063E041E003C083E02F
:1046E00063E040E00E9425190895CF93DF930E9474
:1046F000A9180E94D81D84EF91E028EC30E0F90160
:104700003197F1F70197D9F70E94A71D80E29EE447
:104710000197F1F780E060E00E94C91D80EC94E011
:104720000E94741D81E060E00E94C91D81ED94E04B
:104730000E94741D80E29EE428EC30E0F90131977C
:10474000F1F70197D9F70E94351682E067E041E062
:104750000E94B21880E063E041E00E94B21880E05D
:1047600064E041E00E94B21883E064E041E00E940E
:10477000B21883E067E040E00E94B21883E066E090
:1047800040E00E94B21883E065E040E00E94B21869
:1047900083E067E041E00E94251983E066E041E0A4
:1047A0000E94251983E065E041E00E94251980E020
:1047B00066E040E00E94B21880E067E040E00E94BE
:1047C000B21880E066E041E00E94251980E067E0D1
:1047D00041E00E942519E199FECF84E690E09FBB5D
:1047E0008EBBE09A8DB38093BB0B843158F010924E
:1047F000BB0BE199FECF84E690E09FBB8EBB1DBA58
:10480000E29AE19AE199FECF8AEF90E09FBB8EBBDE
:10481000E09A8DB38093BF0B843158F01092BF0B98
:10482000E199FECF8AEF90E09FBB8EBB1DBAE29A62
:10483000E19A1092B50B1092B60B1092B70B0E9432
:10484000232382EE94E00E942F1F84E095E00E94D3
:104850002F1F80E195E00E942F1F85E295E00E94C6
:104860002F1F8BE395E00E942F1F8CE495E00E94A0
:104870002F1F8EE595E00E942F1F82E795E00E9492
:104880002F1F87E895E00E942F1F89E995E00E947D
:104890002F1F8CEA95E00E942F1F8DEC95E00E945F
:1048A0002F1F89EE95E00E942F1F89E096E00E945D
:1048B0002F1F83E296E00E942F1F83E496E00E9460
:1048C0002F1F0E9443210E94C32284E060E00E94C7
:1048D000061F28EE33E0C8ECD0E005C0CE010197FA
:1048E000F1F72150304021153105C1F70E94C32254
:1048F0000E9420200E943C1F0E9423238091C30B12
:104900009091C40B8C599F4F9093C40B8093C30B11
:104910008858934130F01092C40B1092C30B0E9440
:10492000AB1E5F9B83C09CB18091B90B882309F0BB
:104930007DC0973309F442C0983378F4933349F13A
:10494000943330F49133E9F0923309F06FC01DC015
:10495000953339F1963358F520C0983409F457C08F
:10496000993430F4983379F1963409F05FC030C04F
:10497000933509F446C0963689F19C3409F056C047
:1049800043C081E08093B50B27C01092B50B82E045
:1049900023C081E08093B60B24C01092B60B82E056
:1049A00020C081E08093B50B8093B60B05C01092B8
:1049B000B50B1092B60B82E063E014C081E08093E7
:1049C000B70B83E009C01092B70B83E060E00AC028
:1049D00081E08093B80B84E061E004C01092B80BD2
:1049E00084E062E00E94061F8091BC0B8F5F809381
:1049F000BC0B83E064E041E00E94251988E592E069
:104A00000BC00E94432112C00E94CA210FC085E63C
:104A100096E00E942F1F0AC0FE013197F1F701971F
:104A2000D9F783E064E040E00E9425198091C20B31
:104A30008F5F8093C20B8A30F0F01092C20B80918E
:104A4000C00B9091C10B01969093C10B8093C00B4A
:104A500080569A4E20F01092C10B1092C00B80919C
:104A6000C00B9091C10B6AE070E00E944A257093E0
:104A7000BE0B6093BD0B28EE33E030CF991B79E07D
:104A800004C0991F961708F0961B881F7A95C9F7DE
:104A900080950895AA1BBB1B51E107C0AA1FBB1F2D
:104AA000A617B70710F0A61BB70B881F991F5A95BA
:104AB000A9F780959095BC01CD01089597FB092E2B
:104AC00007260AD077FD04D0E5DF06D000201AF4CF
:104AD000709561957F4F0895F6F7909581959F4F5A
:104AE0000895A1E21A2EAA1BBB1BFD010DC0AA1F2F
:104AF000BB1FEE1FFF1FA217B307E407F50720F047
:104B0000A21BB30BE40BF50B661F771F881F991FC1
:104B10001A9469F760957095809590959B01AC010A
:104B2000BD01CF0108952F923F924F925F926F92F5
:104B30007F928F929F92AF92BF92CF92DF92EF922D
:104B4000FF920F931F93CF93DF93CDB7DEB7CA1BAE
:104B5000DB0B0FB6F894DEBF0FBECDBF09942A88D9
:104B6000398848885F846E847D848C849B84AA8481
:104B7000B984C884DF80EE80FD800C811B81AA810E
:104B8000B981CE0FD11D0FB6F894DEBF0FBECDBFD9
:104B9000ED010895FB01DC0102C001900D9241502E
:104BA0005040D8F70895DC0101C06D93415050404A
:104BB000E0F70895FB01DC014150504048F00190BE
:104BC0000D920020C9F701C01D9241505040E0F7FE
:064BD0000895F894FFCFE8
:104BD60049444C4500546D7220537663005B425441
:104BE6004E5D204C6976696E6720526F6F6D2000AE
:104BF6004F46460D0A004F4E0D0A005B42544E5D6D
:104C060020426564726F6F6D20005B42544E5D20DA
:104C160053454355524954592041435449564154EA
:104C26004544210D0A005B42544E5D205365637571
:104C360072697479204F46460D0A005B4F564552FD
:104C4600524944455D204D4153544552204F5645E7
:104C56005252494445204143544956415445442102
:104C66000D0A00416C6C20426C7565746F6F746838
:104C760020636F6D6D616E64732044495341424CED
:104C860045440D0A005B4F564552524944455D2046
:104C96004D6173746572206F766572726964652002
:104CA6004F46460D0A005B4F564552524944455DF4
:104CB6002046616E204F4E2076696120444950326D
:104CC6000D0A005B4F564552524944455D204661E8
:104CD6006E204F46462076696120444950320D0ABF
:104CE600000D0A3D3D3D3D204556454E54204C4F56
:104CF6004753203D3D3D3D0D0A004E6F20657665CC
:104D06006E74732068617665206265656E206C6FCF
:104D160067676564207965742E0D0A005B457665C4
:104D26006E7420005D20004C6976696E6720526FB4
:104D36006F6D204C69676874207475726E656420A7
:104D46004F4E00426564726F6F6D204C69676874E0
:104D5600207475726E6564204F4E00416C6C204C59
:104D66006967687473207475726E6564204F4E00AF
:104D76004C6976696E6720526F6F6D204C69676863
:104D860074207475726E6564204F464600426564F1
:104D9600726F6F6D204C69676874207475726E65EA
:104DA60064204F464600416C6C204C6967687473FA
:104DB600207475726E6564204F46460053656375B0
:104DC600726974792053797374656D20414354492F
:104DD600564154454400536563757269747920538E
:104DE600797374656D204445414354495641544591
:104DF600440053797374656D2053746172746564ED
:104E06000046616E207475726E6564204F4E0046D2
:104E1600616E207475726E6564204F464600537944
:104E26007374656D204576656E74004D61737465A7
:104E360072204F7665727269646520454E41424C18
:104E46004544004C6F636B204D6F646520454E41B1
:104E5600424C4544004F7665727269646520444948
:104E66005341424C4544004F766572726964652031
:104E76004368616E67656400556E6B6E6F776E2072
:104E86004576656E74000D0A003D3D3D3D3D3D3D58
:104E96003D3D3D3D3D3D3D3D3D3D3D3D3D0D0A00DC
:104EA6000D0A3D3D3D20535441545553203D3D3D53
:104EB6000D0A4C6976696E6720526F6F6D3A200055
:104EC6004F4646004F4E000D0A426564726F6F6D85
:104ED6003A20000D0A53656375726974793A2000A9
:104EE6000D0A46616E3A20000D0A4D6F64653A2040
:104EF600004D4153544552204F5645525249444560
:104F0600004C4F434B204D4F4445004E4F524D41B0
:104F16004C000D0A436F6D6D616E64733A20000D8F
:104F26000A557074696D653A2000206D696E0D0A28
:104F36003D3D3D3D3D3D3D3D3D3D3D3D3D3D0D0AFE
:104F4600000D0A3D3D3D3D205354415455532053D9
:104F56004E415053484F5453203D3D3D3D0D0A00B0
:104F66004E6F2073746174757320736E617073680D
:104F76006F7473207965742E0D0A00536E61707319
:104F8600686F7420003A20004C6976696E67526F2C
:104F96006F6D3A004F464620004F4E200042656432
:104FA600726F6F6D3A0053656375726974793A0072
:104FB60046616E3A004D6F64653A004D4153544563
:104FC600525F4F5645525249444520004C4F434B81
:104FD6005F4D4F444520004E4F524D414C200043FB
:104FE6006D64733A0020557074696D653A00206DE2
:104FF600696E0D0A004C3A0020423A0020463A00FB
:105006004D4153544552204F56455252494445202E
:10501600004C4F434B204D4F44452020202020205C
:10502600005365633A004F4E202000436D643A00FA
:10503600536D61727420486F6D65205265616479A5
:105046000053656E6420636F6D6D616E64732E2E02
:105056002E003D3D3D20534D41525420484F4D4575
:105066002053595354454D205245414459203D3D06
:105076003D0D0A00436F6D6D616E64733A0D0A0053
:1050860031203D204C6976696E6720526F6F6D2026
:105096004F4E0D0A0032203D204C6976696E67201E
:1050A600526F6F6D204F46460D0A0033203D204259
:1050B6006564726F6F6D204F4E0D0A0034203D20DF
:1050C600426564726F6F6D204F46460D0A003520AB
:1050D6003D20416C6C204C6967687473204F4E0DFF
:1050E6000A0036203D20416C6C204C696768747359
:1050F600204F46460D0A0037203D205365637572E2
:10510600697479204F4E0D0A0038203D205365639F
:105116007572697479204F46460D0A0053203D206A
:105126005374617475732C204C203D204C6F67734B
:105136002C2048203D2048656C700D0A002D2D2D31
:10514600204F5645525249444520464541545552F2
:105156004553202D2D2D0D0A0044495020537769C3
:1051660074636820313A204D6173746572204F76FE
:105176006572726964650D0A004449502053776967
:1051860074636820323A204C6F636B204D6F646500
:105196000D0A00506879736963616C2062757474D6
:1051A6006F6E7320616C7761797320776F726B21F4
:1051B6000D0A003D3D3D3D3D3D3D3D3D3D3D3D3DB9
:1051C6003D3D3D3D3D3D3D3D3D3D3D3D3D3D3D3D09
:1051D6003D3D0D0A0048656C703A20312D383D433F
:1051E6006F6E74726F6C2C20462F663D46616E2C76
:1051F60020533D5374617475732C204C3D4C6F677E
:10520600730D0A000000000000000000FFFF01010E
:0C521600013F065B4F666D7D077F6F0057
:00000001FF
